:020000040000fa
:080000000001040000000000f3
:020000040000fa
:100200000f84200080792200000188000000000097
:10021000050007000c0007006c0c02000000000045
:100220000040da000000fe004440a9000000200069
:100230000000e0000300320000002000a001880060
:100240004440a8000000060080d1200001002000ea
:100250001600370062004000e080480091018800ed
:100260009001ba0062004000e080480091018800df
:100270009002ba0062004000e08048000002eb00fb
:100280006028e10005003a008301e900070033001f
:10029000038009000059eb00040037006128e100e9
:1002a000010032000082eb00050007009101880088
:1002b0001001ba000200e000e6ff3a00000005006d
:1002c000910188008002780062004000e0804800d0
:1002d0003559ba008301e900080032002559ba00f7
:1002e0008301e900050032000400e000f4ff320061
:1002f00015d9ba008301e900f1ff3a0000000600b9
:10030000889fbe008a9fbe00010578000100e000c2
:100310000400350008003c000000e000200032002e
:100320000500370060001000e080180002003b006c
:1003300001f02c001a0037000004be006011b80064
:100340006b0920000982cf00020039000882cf002b
:100350000441b000694252000e00320008003b0028
:1003600082817100610164008904d1000884d30096
:100370008b05e8000442e800f9ff3a000500370069
:100380000804440089844c008b05e9000442e9001c
:10039000fbff3a00620007000af0a70001f0a0008e
:1003a0004f05be004f04be0000000600889fbe003f
:1003b0008a9fbe008c1f78007f00070086003300f4
:1003c00003866c006450e1002e0032006420e100de
:1003d000330032006150e1002f0032006120e10063
:1003e0003100320085855500eb07b0000900200080
:1003f00008042000050037000804440089844c00ec
:100400000a0031000603430087834b0000015300bc
:1004100081815b00f8ff33000203be000800a000ea
:100420000804440089844c00f6ff3900c639dd0019
:100430008301730001003200130020008904d10001
:100440000884d3000998a300050032000800a70023
:100450000300a0008904d1000884d3008b05e800c4
:100460008904d1000884d3000001eb000281d2008e
:100470002b00070001f0a1000cf0a70001f0a00084
:100480005e0037006420e100600032000801be0019
:100490000200be00f7ff37006120e1005b00320080
:1004a0006000b800f3ff37000000200001f82700cb
:1004b000f0ff37000001be00570007000470a700de
:1004c00003f0a10003f8a30013003a006509b1008e
:1004d00010003200090035006928e10002003500f3
:1004e0000100280000000500000040008180480055
:1004f0008502e900fcff3a0000000600f88f420088
:10050000050035008100d1000080d3008502e8009d
:10051000fcff3a00000006008000eb000000050030
:1005200081002000618055000b003d000b00200081
:1005300061fe2f000100e1001d0034008281710086
:10054000610164008904d1000884d3000000e80040
:10055000faff3a007100200061006400030070009f
:10056000020060000900320061044400e0844c0095
:100570000988a500050032008b05e8006808e10045
:1005800002003a008904d1000884d300f20f200051
:100590000258e10005003d00c75ddd00f907b2002b
:1005a0008980750008007800000006000bf827001d
:1005b0008b007800000005000004be001600070054
:1005c0000003be000405be000200be0012000700ca
:1005d000844f7500000006000200be006450e10078
:1005e000050036006420e100020036000968a3001f
:1005f00001003a000800be000160a0004f0678002c
:100600004f05be004f04be0000000600f0ff2f00a3
:10061000f1ff2700f9ff3700c70ade00f107b2003b
:10062000f50fb20008003200e1cf420002003200b4
:100630000170a00024000500810f7000010032004d
:100640000408050044000500810f700002003a0014
:10065000140005008502e9000000400081c0480048
:10066000fcff3b000170a000240005000000fa0020
:100670000080fa00000006000000fa000080fa0086
:10068000000006000000fa000080fa0000000600ea
:100690000000fa00190007000080fa0000000600c0
:1006a0000600fa00000f7800110798002207980052
:1006b00005e1a900500020002e000700800078000e
:1006c0001e00780001087800600020002900070063
:1006d000800078001e009000010878007000200063
:1006e00024000700800078002e00900001087800a8
:1006f00005e1a8000080fa00000006000000fa00f2
:100700000000eb00201588002015800010158800df
:100710001015800000158800a802a800a822a800d3
:10072000a842a900a862a900a882a900a8a2a900bd
:10073000a8c2a900a8e2a900a902a900a922a900ab
:10074000a942a900a962a900a982a900a9a2a90099
:10075000a9c2a900a9e2a900200120002015880053
:100760007000200030158800a1e2a8000080fa0087
:10077000000006000600fa00100798001e00900016
:10078000ef0f5000030036000000eb002007980038
:10079000120037001e00900030158800a022a8002b
:1007a0000000eb00000f7800010037001e0fe8008a
:1007b000700220009e0f1000fcff34008560a9002d
:1007c000a022a90085c0bf00684060000004e000ce
:1007d000fcff320000148000200798002e009000db
:1007e0000080fa00000006000000fa00c4c2a90060
:1007f000c4e2a900c522a900c582a900c542a9007a
:10080000c5a2a900c5c2a900c5e2a900c0c2a9002d
:10081000c0e2a900c122a900c182a900c142a90069
:10082000c1a2a900c1c2a900c1e2a900d022a900a9
:10083000cc22a900d042a900cc42a900e2e2a90042
:10084000e302a900e802a900e822a900dee2a9006b
:10085000df02a900e402a900e422a900e202a90043
:10086000de02a900d602a900d622a900d642a9001c
:10087000d662a900d682a900d6a2a900d6c2a90034
:10088000d6e2a900d202a900d222a900d242a90030
:10089000d262a900d282a900d2a2a900d2c2a90024
:1008a000d2e2a900d1a2a900cda2a900e842a900e4
:1008b000e862a900e442a900e462a900de22a800df
:1008c000dec2a800e4c2a800e4e2a800e502a80095
:1008d000e522a800de22a800d302a800d322a800a7
:1008e000d342a800d362a800d382a800d3a2a80054
:1008f000d3c2a800d3e2a8000080fa0000000600de
:100900000600fa00000f7800110798001e0078001a
:10091000200798002e009000e30f50007d00320069
:100920002e009000e30f500007003e002e009000c4
:10093000e10f5000380032002e009000e10f50000f
:1009400057003e000d0037002e009000e50f5000cc
:10095000b20032002e009000e50f500090003900e8
:100960002e009000e60f5000d10032002e009000c3
:10097000e70f5000f5003200160137001e0090000e
:10098000e10f500014003600c4c2bf000080fb001d
:100990004600de00614060000004a200614060008b
:1009a00061406000004040000040400000404000c6
:1009b000004040000040400000414000412c200029
:1009c00091407800f0cbb30000c06000024070009e
:1009d000c4e2b700730137001e0090006140600060
:1009e0006140600000404000004040000040400086
:1009f000004040000040400000414000412c2000e9
:100a000091407800f0cbb30000c06000024070005d
:100a1000c4e2b700630137001e009000e10f5000f0
:100a200011003600c4c2bf000080fb004700de009a
:100a30000004a2006140600000404000004040000f
:100a400000404000004040000040400000404000a6
:100a500080404000c4c2bf000074a100014070008b
:100a6000c4e2b7004f0137001e00900061406000f3
:100a70000040400000404000004040000040400076
:100a8000004040000040400080404000c4c2bf0021
:100a90000074a10001407000c4e2b70041013700ba
:100aa0001e009000e10f50000f003600c5c2bf00cd
:100ab0000080fb000000d100614060000004a20043
:100ac000614060006140600000414000512c200006
:100ad00091407800d0cfb30000c0600002407000a9
:100ae000c5e2b7002f0137001e0090006140600092
:100af0006140600000414000512c2000914078008e
:100b0000d0cfb30000c0600002407000c5e2b70063
:100b1000240137001e009000e10f50001200360043
:100b2000c5c2bf000080fb004400de0061406000e1
:100b30000004a2006140600061406000004040008d
:100b4000004040000040400000414000512c200087
:100b500091407800f0ceb30000c060000240700009
:100b6000c5e2b7000f0137001e0090006140600031
:100b700061406000004040000040400000404000f4
:100b800000414000512c200091407800f0ceb3008d
:100b900000c0600002407000c5e2b70001013700ec
:100ba0001e009000e10f500010003600c5c2bf00cb
:100bb0000080fb004200de00614060000004a200f3
:100bc0006140600061406000004040000041400022
:100bd000512c200091407800b0cfb30000c06000dd
:100be00002407000c5e2b700ee0037001e00900022
:100bf00061406000614060000040400000414000f2
:100c0000512c200091407800b0cfb30000c06000ac
:100c100002407000c5e2b700e20037001e009000fd
:100c2000e10f500013003600c5c2bf000080fb007a
:100c30004500de00614060000004a20061406000e9
:100c40006140600000404000004040000040400023
:100c50000040400000414000512c200091407800ad
:100c6000f0cdb30000c0600002407000c5e2b700e4
:100c7000cc0037001e0090006140600061406000c1
:100c80000040400000404000004040000040400064
:100c900000414000512c200091407800f0cdb3007d
:100ca00000c0600002407000c5e2b700bd00370020
:100cb0001e009000e10f500014003600c5c2bf00b6
:100cc0000080fb004600de00614060000004a200de
:100cd0006140600061406000004040000040400012
:100ce0000040400000404000004040000041400003
:100cf000512c200091407800f0cbb30000c0600080
:100d000002407000c5e2b700a60037001e00900048
:100d100061406000614060000040400000404000d1
:100d200000404000004040000040400000414000c2
:100d3000512c200091407800f0cbb30000c060003f
:100d400002407000c5e2b700960037001e00900018
:100d5000e10f500011003600c5c2bf000080fb004b
:100d60004700de000004a200614060000040400037
:100d70000040400000404000004040000040400073
:100d80000040400080404000c5c2bf000074a10088
:100d900001407000c5e2b700820037001e009000dd
:100da00061406000004040000040400000404000c2
:100db00000404000004040000040400080404000b3
:100dc000c5c2bf000074a10001407000c5e2b700b9
:100dd000740037001e009000614060000040400039
:100de0000040400000404000004040000040400003
:100df0000040400080404000c5c2bf000074a10018
:100e000001407000c5e2b700c5c2bf000080fb0012
:100e10004700de00614060000040400000404000ac
:100e200000404000004040000040400000414000c1
:100e3000512c200091407800f0cbb30000c060003e
:100e400002407000c5e2b700c5c2bf000080fb00d1
:100e50004600de00614060006140600000404000ec
:100e60000040400000404000004040000041400081
:100e7000512c200091407800f0cdb30000c06000fc
:100e800002407000c5e2b700c5c2bf000080fb0091
:100e90004500de00614060006140600000404000ad
:100ea00000414000512c200091407800b0cfb300a9
:100eb00000c0600002407000c5e2b700c5c2bf00bc
:100ec0000080fb004200de00614060006140600085
:100ed0000040400000404000004040000041400011
:100ee000512c200091407800f0ceb30000c060008b
:100ef00002407000c5e2b700c5c2bf000080fb0021
:100f00004400de006140600061406000004140003c
:100f1000512c200091407800d0cfb30000c0600079
:100f200002407000c5e2b700c5c2bf000080fb00f0
:100f30000000d100614060000040400000404000df
:100f400000404000004040000040400000404000a1
:100f500080404000c4c2bf000074a1000140700086
:100f6000c4e2b700c4c2bf000080fb004700de003f
:100f700061406000004040000040400000404000f0
:100f8000004040000040400000414000412c200053
:100f900091407800f0cbb30000c0600002407000c8
:100fa000c4e2b7000080fa00000006000200fa0068
:100fb000000f7800100020009e0f10001000360077
:100fc000d0c2bf000080fb004200de006140600034
:100fd0000004a200614060006140600000404000e9
:100fe00000414000012d200091407800b0cfb300b7
:100ff00000c0600002407000d0e2b7000b00370074
:101000001e007800614060006140600000404000c8
:1010100000414000012d200091407800b0cfb30086
:1010200000c0600002407000d0e2b7000080fa000b
:10103000000006000200fa00000f780010002000f7
:101040009e0f10000f003600d0c2bf000080fb00d2
:101050000000d100614060000004a2006140600017
:101060006140600000414000012d20009140780067
:10107000d0cfb30000c0600002407000d0e2b700e3
:101080000a0037001e007800614060006140600087
:1010900000414000012d200091407800d0cfb300e6
:1010a00000c0600002407000d0e2b7000080fa008b
:1010b000000006000000fa00c4c2a900c4e2a900b2
:1010c000c522a900c582a900c542a900c5a2a900e0
:1010d000c5c2a900c5e2a9000080fa000000060010
:1010e00000a0fe003400f800881f780008c0b3009c
:1010f000a80188004f0478000200fa0086c0a90009
:10110000a04180000000e0000c003400c0418000dd
:101110000000e800c0418800e04180000000e900d4
:10112000e0418800e04180000000e0000e003d004a
:1011300030002000e04188000b003700c0418000f3
:101140000000e900c0418800e04180000000e800a4
:10115000e0418800e0418000e30f500002003400cd
:101160000000eb00e0418800e0418000000f7800c3
:101170001e007800e10f5000130032001e007800be
:10118000e10f500004003c001e0078000000e00069
:10119000080032001a0037001e007800e20f5000ed
:1011a0000e0032001e007800e30f500010003200e5
:1011b00013003700d602a900d622a800d642a90003
:1011c000d662a8000e003700d602a900d622a800d9
:1011d000d642a800d662a90009003700d602a800ae
:1011e000d622a900d642a800d662a9000400370082
:1011f000d602a800d622a900d642a900d662a8002d
:101200000080fa003400f9000080fe000040060073
:1012100000a0fe003400f800881f780008c0b3006a
:10122000a80188004f0478000200fa0086a0a900f7
:10123000b04180000000e0000c003d00d041800083
:101240000000e900d0418800f04180000000e90082
:10125000f0418800f04180000000e0000e003d00f9
:1012600030002000f04188000b003700d0418000a2
:101270000000e800d0418800f04180000000e80054
:10128000f0418800f0418000e30f5000020034007c
:101290000000eb00f0418800f0418000000f780072
:1012a0001e007800e10f5000130032001e0078008d
:1012b000e10f500004003c001e0078000000e00038
:1012c000080032001a0037001e007800e20f5000bc
:1012d0000e0032001e007800e30f500010003200b4
:1012e00013003700d682a900d6a2a800d6c2a90052
:1012f000d6e2a8000e003700d682a900d6a2a80028
:10130000d6c2a800d6e2a90009003700d682a800fc
:10131000d6a2a900d6c2a800d6e2a90004003700d0
:10132000d682a800d6a2a900d6c2a900d6e2a800fb
:101330000080fa003400f9000080fe000040060042
:101340000000fa00c04180000080fa0000000600a2
:101350000200fa00000f78001027fc001e00780041
:10136000c04188000200fc000080fa000000060076
:101370000000fa00d04180000080fa000000060062
:101380000200fa00000f78001027fc001e00780011
:10139000d04188000200fc000080fa000000060036
:1013a0000400fa00000f78001e00e00006003a007a
:1013b00021e1a900d602a900d622a900d642a9009f
:1013c000d662a9002000370021e1a9001e007800a4
:1013d000a04188000000eb000009880001122000f5
:1013e0009140780000c3b30000c0700020e1b70056
:1013f0000000eb00c00888001e017800120798006a
:101400001e0090000000e00003003d001e0190005f
:101410000201ea00120798001e0190006110b90055
:10142000b7fb07000001be00000020001176240079
:10143000defb07001ffc0700e008880086c0a9004b
:101440008ec0a80021e1a8000080fa00000006007c
:101450000400fa00000f78001e00e00006003a00c9
:101460001fe1a900d682a900d6a2a900d6c2a90070
:10147000d6e2a900200037001fe1a9001e00780075
:10148000b04188000000eb00f0088800e111200066
:101490009140780000c3b30000c070001ee1b700a7
:1014a0000000eb00a00888001e01780012079800d9
:1014b0001e0090000000e00003003d001e019000af
:1014c0000201ea00120798001e0190006110b900a5
:1014d0008bfb07000001be000000200011762400f5
:1014e000b2fb0700f3fb0700d008880086a0a90024
:1014f0008ea0a8001fe1a8000080fa0000000600ee
:101500000000fa00b8fc07000080fa0000000600a6
:101510000000fa000000eb002008880041102000c5
:1015200091407800f0ccb30000c060000044a000ff
:1015300004e1b7000000eb000008880050282000fc
:10154000100888008460a9008c60a80005e1a8004c
:101550000080fa000000060000a0fe003600f8003f
:10156000849fbe00869fbe003400f80004c0b30014
:10157000a40188000200fa008460a90000408000f5
:10158000000f78001e007800e10f50003300320099
:101590001e007800e10f500004003c001e0078009f
:1015a0000000e000080032009a0037001e007800ba
:1015b000e20f50004e0032001e007800e30f500092
:1015c0007000320093003700104080000000e000ff
:1015d0000c003a00502820001008880080002000ed
:1015e00064fc070020408800c000200061fc070068
:1015f00060408800e2e2a80010002000104088004f
:1016000084003700e0f120001008880080002000ee
:1016100058fc0700a0408800c000200055fc0700cf
:10162000e040880021408000a04080000080500001
:101630002041880061408000e04080000080500030
:1016400060418800e2e2a9000000eb001040880041
:1016500010002000004088006e003700104080001d
:101660000000e0000c003a0050282000100888001c
:10167000900020003ffc070030408800d000200090
:101680003cfc070070408800e302a8001000200026
:10169000104088005f003700e0f12000100888004b
:1016a0009000200033fc0700b0408800d0002000ec
:1016b00030fc0700f040880031408000b0408000de
:1016c000008050003041880071408000f040800070
:1016d0000080500070418800e302a9000000eb0088
:1016e000104088002000200000408800490037009a
:1016f000104080000000e0000c003a00502820005c
:1017000010088800a00020001afc07004040880054
:10171000e000200017fc070080408800e802a800d5
:1017200010002000104088003a003700e0f120004f
:1017300010088800a00020000efc0700c0408800b0
:10174000e00020000bfc07000041880041408000c1
:10175000c0408000008050004041880081408000ef
:10176000004180000080500080418800e802a9000c
:101770000000eb001040880030002000004088008e
:1017800024003700104080000000e0000c003a0008
:101790005028200010088800b0002000f5fb07004a
:1017a00050408800f0002000f2fb070090408800c5
:1017b000e822a80010002000104088001500370023
:1017c000e0f1200010088800b0002000e9fb0700cd
:1017d000d0408800f0002000e6fb070010418800a0
:1017e00051408000d040800000805000504188006f
:1017f000914080001041800000805000904188009e
:10180000e822a9000000eb00104088000000eb0077
:10181000004088000080fa003400f9004f03be0049
:101820004f02be003600f9000080fe0000400600b6
:101830000400fa00000f7800700020009e0f1000d6
:10184000030036000000eb00100798000600370088
:101850001e00780080004000408220000080400090
:1018600010007800100798001e0090000080fa0019
:10187000000006000400fa00000f7800700020004d
:101880009e0f1000030036000000eb0010079800c8
:10189000060037001e0078008000400040802000d5
:1018a0000080400010007800100798001e00900093
:1018b0000080fa00000006000000fa008ffb07001d
:1018c00013ff07000080fa00000006000000fa0085
:1018d0000080fa00000006000400fa00380007004b
:1018e000000f78001e007800100798001e0090007e
:1018f000e20f5000150032001e009000e20f500071
:1019000007003c001e0090000000e0000b003200c9
:101910001e009000e10f50000a0032001100370055
:101920001e009000e30f50000a0032001e009000dd
:10193000e40f5000090032000a0037004bfb07009b
:10194000090037004ffb0700070037004afb07007c
:1019500005003700ddff0700030037000400070023
:1019600001003700020007000080fa0000000600b6
:101970000000fa000080fa00000006000800fa00eb
:1019800020079800310798006000b800008fbe0063
:101990000400370010002000010020001e0f40004e
:1019a0005e9748002e009000be009000be0f100011
:1019b000ae8f1800f7ff35000080fa000000060027
:1019c0000000fa00e6c2bf000080fb004600de0017
:1019d000614060000081fb00e7c2bf000080fb00a7
:1019e0000000d100614060000080fb00000040006a
:1019f00080007800e7c2bf00614060000080fb000b
:101a0000008040000000400080007800e6c2bf0077
:101a10000080fb004700de000080fb0000804000eb
:101a200000004000000041000080fa0000000600b5
:020000040000fa
:10000800320d0000320d0000320d0000320d0000ec
:10001800320d0000320d0000320d0000320d0000dc
:10002800320d0000320d0000320d0000ac0a000055
:10003800320d0000320d0000320d0000320d0000bc
:10004800320d0000320d0000320d0000320d0000ac
:10005800320d0000320d0000320d0000320d00009c
:10006800320d0000320d0000320d0000320d00008c
:10007800320d00000809000070080000320d000071
:10008800320d0000320d0000320d0000320d00006c
:10009800320d0000320d0000320d0000320d00005c
:1000a800320d0000320d0000320d0000320d00004c
:1000b800320d0000320d0000320d0000320d00003c
:1000c800320d0000320d0000320d0000320d00002c
:1000d800320d0000320d0000320d0000320d00001c
:1000e800320d0000320d0000320d0000320d00000c
:0800f800320d0000320d000082
:020000040000fa
:10010800320d0000320d0000320d0000320d0000eb
:10011800320d0000320d0000320d0000320d0000db
:10012800320d0000320d0000320d0000ac0a000054
:10013800320d0000320d0000320d0000320d0000bb
:10014800320d0000320d0000320d0000320d0000ab
:10015800320d0000320d0000320d0000320d00009b
:10016800320d0000320d0000320d0000320d00008b
:10017800320d00000809000070080000320d000070
:10018800320d0000320d0000320d0000320d00006b
:10019800320d0000320d0000320d0000320d00005b
:1001a800320d0000320d0000320d0000320d00004b
:1001b800320d0000320d0000320d0000320d00003b
:1001c800320d0000320d0000320d0000320d00002b
:1001d800320d0000320d0000320d0000320d00001b
:1001e800320d0000320d0000320d0000320d00000b
:0801f800320d0000320d000081
:020000040000fa
:101a30003408000008000000020000000000000060
:101a400000000000000000003c080000040000004e
:101a5000000000000008000034000000000000004a
:041a60000000000082
:020000040000fa
:041a64000000fe0080
:00000001FF
